{
  "_format": "hh-sol-artifact-1",
  "contractName": "TodoContract",
  "sourceName": "contracts/TodoContract.sol",
  "abi": [
    {
      "anonymous": false,
      "inputs": [
        {
          "indexed": false,
          "internalType": "address",
          "name": "username",
          "type": "address"
        },
        {
          "indexed": false,
          "internalType": "uint256",
          "name": "taskId",
          "type": "uint256"
        }
      ],
      "name": "logAddask",
      "type": "event"
    },
    {
      "anonymous": false,
      "inputs": [
        {
          "indexed": false,
          "internalType": "uint256",
          "name": "taskId",
          "type": "uint256"
        },
        {
          "indexed": false,
          "internalType": "bool",
          "name": "isCompleted",
          "type": "bool"
        }
      ],
      "name": "logDeleteTask",
      "type": "event"
    },
    {
      "inputs": [
        {
          "internalType": "string",
          "name": "todoText",
          "type": "string"
        }
      ],
      "name": "addTask",
      "outputs": [],
      "stateMutability": "nonpayable",
      "type": "function"
    },
    {
      "inputs": [
        {
          "internalType": "uint256",
          "name": "taskId",
          "type": "uint256"
        }
      ],
      "name": "deleteTask",
      "outputs": [],
      "stateMutability": "nonpayable",
      "type": "function"
    },
    {
      "inputs": [],
      "name": "getTasks",
      "outputs": [
        {
          "components": [
            {
              "internalType": "uint256",
              "name": "taskId",
              "type": "uint256"
            },
            {
              "internalType": "string",
              "name": "todoText",
              "type": "string"
            },
            {
              "internalType": "address",
              "name": "username",
              "type": "address"
            },
            {
              "internalType": "bool",
              "name": "isCompleted",
              "type": "bool"
            }
          ],
          "internalType": "struct TodoContract.Task[]",
          "name": "",
          "type": "tuple[]"
        }
      ],
      "stateMutability": "view",
      "type": "function"
    }
  ],
  "bytecode": "0x608060405234801561001057600080fd5b50610f38806100206000396000f3fe608060405234801561001057600080fd5b50600436106100415760003560e01c806304a87e3814610046578063560f3192146100645780636723856214610080575b600080fd5b61004e61009c565b60405161005b9190610875565b60405180910390f35b61007e600480360381019061007991906108d7565b6103a6565b005b61009a60048036038101906100959190610a39565b610484565b005b606060008060038054905067ffffffffffffffff8111156100c0576100bf61090e565b5b6040519080825280602002602001820160405280156100f957816020015b6100e661060b565b8152602001906001900390816100de5790505b50905060005b6003805490508110156102ec573373ffffffffffffffffffffffffffffffffffffffff166001600083815260200190815260200160002060009054906101000a900473ffffffffffffffffffffffffffffffffffffffff1673ffffffffffffffffffffffffffffffffffffffff16036102d9576003818154811061018657610185610a82565b5b9060005260206000209060030201604051806080016040529081600082015481526020016001820180546101b990610ae0565b80601f01602080910402602001604051908101604052809291908181526020018280546101e590610ae0565b80156102325780601f1061020757610100808354040283529160200191610232565b820191906000526020600020905b81548152906001019060200180831161021557829003601f168201915b505050505081526020016002820160009054906101000a900473ffffffffffffffffffffffffffffffffffffffff1673ffffffffffffffffffffffffffffffffffffffff1673ffffffffffffffffffffffffffffffffffffffff1681526020016002820160149054906101000a900460ff1615151515815250508284815181106102bf576102be610a82565b5b602002602001018190525082806102d590610b40565b9350505b80806102e490610b40565b9150506100ff565b5060008267ffffffffffffffff8111156103095761030861090e565b5b60405190808252806020026020018201604052801561034257816020015b61032f61060b565b8152602001906001900390816103275790505b50905060005b8381101561039c5782818151811061036357610362610a82565b5b602002602001015182828151811061037e5761037d610a82565b5b6020026020010181905250808061039490610b40565b915050610348565b5080935050505090565b3373ffffffffffffffffffffffffffffffffffffffff166001600083815260200190815260200160002060009054906101000a900473ffffffffffffffffffffffffffffffffffffffff1673ffffffffffffffffffffffffffffffffffffffff1614610447576040517f08c379a000000000000000000000000000000000000000000000000000000000815260040161043e90610be5565b60405180910390fd5b7f9d993a6d4493a674b60bbbf1593ac0dcc3084e4595c5cae0c00ebe657c81d03c816001604051610479929190610c23565b60405180910390a150565b60006003805490509050600360405180608001604052808381526020018481526020013373ffffffffffffffffffffffffffffffffffffffff1681526020016000151581525090806001815401808255809150506001900390600052602060002090600302016000909190919091506000820151816000015560208201518160010190816105129190610df8565b5060408201518160020160006101000a81548173ffffffffffffffffffffffffffffffffffffffff021916908373ffffffffffffffffffffffffffffffffffffffff16021790555060608201518160020160146101000a81548160ff0219169083151502179055505050336001600083815260200190815260200160002060006101000a81548173ffffffffffffffffffffffffffffffffffffffff021916908373ffffffffffffffffffffffffffffffffffffffff1602179055507f14619e967122e7f486429e3e5c123f90a12323a0215093a5c8b2e66d0899720f33826040516105ff929190610ed9565b60405180910390a15050565b60405180608001604052806000815260200160608152602001600073ffffffffffffffffffffffffffffffffffffffff1681526020016000151581525090565b600081519050919050565b600082825260208201905092915050565b6000819050602082019050919050565b6000819050919050565b61068a81610677565b82525050565b600081519050919050565b600082825260208201905092915050565b60005b838110156106ca5780820151818401526020810190506106af565b60008484015250505050565b6000601f19601f8301169050919050565b60006106f282610690565b6106fc818561069b565b935061070c8185602086016106ac565b610715816106d6565b840191505092915050565b600073ffffffffffffffffffffffffffffffffffffffff82169050919050565b600061074b82610720565b9050919050565b61075b81610740565b82525050565b60008115159050919050565b61077681610761565b82525050565b60006080830160008301516107946000860182610681565b50602083015184820360208601526107ac82826106e7565b91505060408301516107c16040860182610752565b5060608301516107d4606086018261076d565b508091505092915050565b60006107eb838361077c565b905092915050565b6000602082019050919050565b600061080b8261064b565b6108158185610656565b93508360208202850161082785610667565b8060005b85811015610863578484038952815161084485826107df565b945061084f836107f3565b925060208a0199505060018101905061082b565b50829750879550505050505092915050565b6000602082019050818103600083015261088f8184610800565b905092915050565b6000604051905090565b600080fd5b600080fd5b6108b481610677565b81146108bf57600080fd5b50565b6000813590506108d1816108ab565b92915050565b6000602082840312156108ed576108ec6108a1565b5b60006108fb848285016108c2565b91505092915050565b600080fd5b600080fd5b7f4e487b7100000000000000000000000000000000000000000000000000000000600052604160045260246000fd5b610946826106d6565b810181811067ffffffffffffffff821117156109655761096461090e565b5b80604052505050565b6000610978610897565b9050610984828261093d565b919050565b600067ffffffffffffffff8211156109a4576109a361090e565b5b6109ad826106d6565b9050602081019050919050565b82818337600083830152505050565b60006109dc6109d784610989565b61096e565b9050828152602081018484840111156109f8576109f7610909565b5b610a038482856109ba565b509392505050565b600082601f830112610a2057610a1f610904565b5b8135610a308482602086016109c9565b91505092915050565b600060208284031215610a4f57610a4e6108a1565b5b600082013567ffffffffffffffff811115610a6d57610a6c6108a6565b5b610a7984828501610a0b565b91505092915050565b7f4e487b7100000000000000000000000000000000000000000000000000000000600052603260045260246000fd5b7f4e487b7100000000000000000000000000000000000000000000000000000000600052602260045260246000fd5b60006002820490506001821680610af857607f821691505b602082108103610b0b57610b0a610ab1565b5b50919050565b7f4e487b7100000000000000000000000000000000000000000000000000000000600052601160045260246000fd5b6000610b4b82610677565b91507fffffffffffffffffffffffffffffffffffffffffffffffffffffffffffffffff8203610b7d57610b7c610b11565b5b600182019050919050565b600082825260208201905092915050565b7f4f6e6c79206f776e65722063616e2064656c65746520746865207461736b0000600082015250565b6000610bcf601e83610b88565b9150610bda82610b99565b602082019050919050565b60006020820190508181036000830152610bfe81610bc2565b9050919050565b610c0e81610677565b82525050565b610c1d81610761565b82525050565b6000604082019050610c386000830185610c05565b610c456020830184610c14565b9392505050565b60008190508160005260206000209050919050565b60006020601f8301049050919050565b600082821b905092915050565b600060088302610cae7fffffffffffffffffffffffffffffffffffffffffffffffffffffffffffffffff82610c71565b610cb88683610c71565b95508019841693508086168417925050509392505050565b6000819050919050565b6000610cf5610cf0610ceb84610677565b610cd0565b610677565b9050919050565b6000819050919050565b610d0f83610cda565b610d23610d1b82610cfc565b848454610c7e565b825550505050565b600090565b610d38610d2b565b610d43818484610d06565b505050565b5b81811015610d6757610d5c600082610d30565b600181019050610d49565b5050565b601f821115610dac57610d7d81610c4c565b610d8684610c61565b81016020851015610d95578190505b610da9610da185610c61565b830182610d48565b50505b505050565b600082821c905092915050565b6000610dcf60001984600802610db1565b1980831691505092915050565b6000610de88383610dbe565b9150826002028217905092915050565b610e0182610690565b67ffffffffffffffff811115610e1a57610e1961090e565b5b610e248254610ae0565b610e2f828285610d6b565b600060209050601f831160018114610e625760008415610e50578287015190505b610e5a8582610ddc565b865550610ec2565b601f198416610e7086610c4c565b60005b82811015610e9857848901518255600182019150602085019450602081019050610e73565b86831015610eb55784890151610eb1601f891682610dbe565b8355505b6001600288020188555050505b505050505050565b610ed381610740565b82525050565b6000604082019050610eee6000830185610eca565b610efb6020830184610c05565b939250505056fea2646970667358221220506226310ef2f5a3996f12b572b457d163731c60557dbc11ef214ebc18edac2164736f6c63430008110033",
  "linkReferences": {},
  "deployedLinkReferences": {}
}